{
  "contractName": "Artifact",
  "abi": [
    {
      "inputs": [
        {
          "internalType": "address",
          "name": "mpAddress",
          "type": "address"
        }
      ],
      "stateMutability": "nonpayable",
      "type": "constructor"
    },
    {
      "anonymous": false,
      "inputs": [
        {
          "indexed": true,
          "internalType": "address",
          "name": "owner",
          "type": "address"
        },
        {
          "indexed": true,
          "internalType": "address",
          "name": "approved",
          "type": "address"
        },
        {
          "indexed": true,
          "internalType": "uint256",
          "name": "tokenId",
          "type": "uint256"
        }
      ],
      "name": "Approval",
      "type": "event"
    },
    {
      "anonymous": false,
      "inputs": [
        {
          "indexed": true,
          "internalType": "address",
          "name": "owner",
          "type": "address"
        },
        {
          "indexed": true,
          "internalType": "address",
          "name": "operator",
          "type": "address"
        },
        {
          "indexed": false,
          "internalType": "bool",
          "name": "approved",
          "type": "bool"
        }
      ],
      "name": "ApprovalForAll",
      "type": "event"
    },
    {
      "anonymous": false,
      "inputs": [
        {
          "indexed": true,
          "internalType": "address",
          "name": "from",
          "type": "address"
        },
        {
          "indexed": true,
          "internalType": "address",
          "name": "to",
          "type": "address"
        },
        {
          "indexed": true,
          "internalType": "uint256",
          "name": "tokenId",
          "type": "uint256"
        }
      ],
      "name": "Transfer",
      "type": "event"
    },
    {
      "inputs": [
        {
          "internalType": "address",
          "name": "to",
          "type": "address"
        },
        {
          "internalType": "uint256",
          "name": "tokenId",
          "type": "uint256"
        }
      ],
      "name": "approve",
      "outputs": [],
      "stateMutability": "nonpayable",
      "type": "function"
    },
    {
      "inputs": [
        {
          "internalType": "address",
          "name": "owner",
          "type": "address"
        }
      ],
      "name": "balanceOf",
      "outputs": [
        {
          "internalType": "uint256",
          "name": "",
          "type": "uint256"
        }
      ],
      "stateMutability": "view",
      "type": "function",
      "constant": true
    },
    {
      "inputs": [
        {
          "internalType": "uint256",
          "name": "tokenId",
          "type": "uint256"
        }
      ],
      "name": "getApproved",
      "outputs": [
        {
          "internalType": "address",
          "name": "",
          "type": "address"
        }
      ],
      "stateMutability": "view",
      "type": "function",
      "constant": true
    },
    {
      "inputs": [
        {
          "internalType": "address",
          "name": "owner",
          "type": "address"
        },
        {
          "internalType": "address",
          "name": "operator",
          "type": "address"
        }
      ],
      "name": "isApprovedForAll",
      "outputs": [
        {
          "internalType": "bool",
          "name": "",
          "type": "bool"
        }
      ],
      "stateMutability": "view",
      "type": "function",
      "constant": true
    },
    {
      "inputs": [],
      "name": "name",
      "outputs": [
        {
          "internalType": "string",
          "name": "",
          "type": "string"
        }
      ],
      "stateMutability": "view",
      "type": "function",
      "constant": true
    },
    {
      "inputs": [
        {
          "internalType": "uint256",
          "name": "tokenId",
          "type": "uint256"
        }
      ],
      "name": "ownerOf",
      "outputs": [
        {
          "internalType": "address",
          "name": "",
          "type": "address"
        }
      ],
      "stateMutability": "view",
      "type": "function",
      "constant": true
    },
    {
      "inputs": [
        {
          "internalType": "address",
          "name": "from",
          "type": "address"
        },
        {
          "internalType": "address",
          "name": "to",
          "type": "address"
        },
        {
          "internalType": "uint256",
          "name": "tokenId",
          "type": "uint256"
        }
      ],
      "name": "safeTransferFrom",
      "outputs": [],
      "stateMutability": "nonpayable",
      "type": "function"
    },
    {
      "inputs": [
        {
          "internalType": "address",
          "name": "from",
          "type": "address"
        },
        {
          "internalType": "address",
          "name": "to",
          "type": "address"
        },
        {
          "internalType": "uint256",
          "name": "tokenId",
          "type": "uint256"
        },
        {
          "internalType": "bytes",
          "name": "_data",
          "type": "bytes"
        }
      ],
      "name": "safeTransferFrom",
      "outputs": [],
      "stateMutability": "nonpayable",
      "type": "function"
    },
    {
      "inputs": [
        {
          "internalType": "address",
          "name": "operator",
          "type": "address"
        },
        {
          "internalType": "bool",
          "name": "approved",
          "type": "bool"
        }
      ],
      "name": "setApprovalForAll",
      "outputs": [],
      "stateMutability": "nonpayable",
      "type": "function"
    },
    {
      "inputs": [
        {
          "internalType": "bytes4",
          "name": "interfaceId",
          "type": "bytes4"
        }
      ],
      "name": "supportsInterface",
      "outputs": [
        {
          "internalType": "bool",
          "name": "",
          "type": "bool"
        }
      ],
      "stateMutability": "view",
      "type": "function",
      "constant": true
    },
    {
      "inputs": [],
      "name": "symbol",
      "outputs": [
        {
          "internalType": "string",
          "name": "",
          "type": "string"
        }
      ],
      "stateMutability": "view",
      "type": "function",
      "constant": true
    },
    {
      "inputs": [
        {
          "internalType": "uint256",
          "name": "tokenId",
          "type": "uint256"
        }
      ],
      "name": "tokenURI",
      "outputs": [
        {
          "internalType": "string",
          "name": "",
          "type": "string"
        }
      ],
      "stateMutability": "view",
      "type": "function",
      "constant": true
    },
    {
      "inputs": [
        {
          "internalType": "address",
          "name": "from",
          "type": "address"
        },
        {
          "internalType": "address",
          "name": "to",
          "type": "address"
        },
        {
          "internalType": "uint256",
          "name": "tokenId",
          "type": "uint256"
        }
      ],
      "name": "transferFrom",
      "outputs": [],
      "stateMutability": "nonpayable",
      "type": "function"
    },
    {
      "inputs": [
        {
          "internalType": "string",
          "name": "_tokenURI",
          "type": "string"
        }
      ],
      "name": "createArtifactToken",
      "outputs": [
        {
          "internalType": "uint256",
          "name": "",
          "type": "uint256"
        }
      ],
      "stateMutability": "nonpayable",
      "type": "function"
    }
  ],
  "bytecode": "0x60806040523480156200001157600080fd5b5060405162002d7338038062002d738339818101604052810190620000379190620001e6565b6040518060400160405280600f81526020017f486973746f72792773205661756c7400000000000000000000000000000000008152506040518060400160405280600381526020017f48495300000000000000000000000000000000000000000000000000000000008152508160009080519060200190620000bb9291906200011f565b508060019080519060200190620000d49291906200011f565b50505080600860006101000a81548173ffffffffffffffffffffffffffffffffffffffff021916908373ffffffffffffffffffffffffffffffffffffffff16021790555050620002c5565b8280546200012d9062000246565b90600052602060002090601f0160209004810192826200015157600085556200019d565b82601f106200016c57805160ff19168380011785556200019d565b828001600101855582156200019d579182015b828111156200019c5782518255916020019190600101906200017f565b5b509050620001ac9190620001b0565b5090565b5b80821115620001cb576000816000905550600101620001b1565b5090565b600081519050620001e081620002ab565b92915050565b600060208284031215620001f957600080fd5b60006200020984828501620001cf565b91505092915050565b60006200021f8262000226565b9050919050565b600073ffffffffffffffffffffffffffffffffffffffff82169050919050565b600060028204905060018216806200025f57607f821691505b602082108114156200027657620002756200027c565b5b50919050565b7f4e487b7100000000000000000000000000000000000000000000000000000000600052602260045260246000fd5b620002b68162000212565b8114620002c257600080fd5b50565b612a9e80620002d56000396000f3fe608060405234801561001057600080fd5b50600436106100ea5760003560e01c80636352211e1161008c578063a22cb46511610066578063a22cb4651461026f578063b88d4fde1461028b578063c87b56dd146102a7578063e985e9c5146102d7576100ea565b80636352211e146101f157806370a082311461022157806395d89b4114610251576100ea565b8063095ea7b3116100c8578063095ea7b31461016d57806323b872dd146101895780633905585f146101a557806342842e0e146101d5576100ea565b806301ffc9a7146100ef57806306fdde031461011f578063081812fc1461013d575b600080fd5b61010960048036038101906101049190611bf1565b610307565b60405161011691906123f6565b60405180910390f35b6101276103e9565b6040516101349190612411565b60405180910390f35b61015760048036038101906101529190611c84565b61047b565b604051610164919061238f565b60405180910390f35b61018760048036038101906101829190611bb5565b610500565b005b6101a3600480360381019061019e9190611aaf565b610618565b005b6101bf60048036038101906101ba9190611c43565b610678565b6040516101cc9190612633565b60405180910390f35b6101ef60048036038101906101ea9190611aaf565b6106dc565b005b61020b60048036038101906102069190611c84565b6106fc565b604051610218919061238f565b60405180910390f35b61023b60048036038101906102369190611a4a565b6107ae565b6040516102489190612633565b60405180910390f35b610259610866565b6040516102669190612411565b60405180910390f35b61028960048036038101906102849190611b79565b6108f8565b005b6102a560048036038101906102a09190611afe565b610a79565b005b6102c160048036038101906102bc9190611c84565b610adb565b6040516102ce9190612411565b60405180910390f35b6102f160048036038101906102ec9190611a73565b610c2d565b6040516102fe91906123f6565b60405180910390f35b60007f80ac58cd000000000000000000000000000000000000000000000000000000007bffffffffffffffffffffffffffffffffffffffffffffffffffffffff1916827bffffffffffffffffffffffffffffffffffffffffffffffffffffffff191614806103d257507f5b5e139f000000000000000000000000000000000000000000000000000000007bffffffffffffffffffffffffffffffffffffffffffffffffffffffff1916827bffffffffffffffffffffffffffffffffffffffffffffffffffffffff1916145b806103e257506103e182610cc1565b5b9050919050565b6060600080546103f890612893565b80601f016020809104026020016040519081016040528092919081815260200182805461042490612893565b80156104715780601f1061044657610100808354040283529160200191610471565b820191906000526020600020905b81548152906001019060200180831161045457829003601f168201915b5050505050905090565b600061048682610d2b565b6104c5576040517f08c379a00000000000000000000000000000000000000000000000000000000081526004016104bc90612593565b60405180910390fd5b6004600083815260200190815260200160002060009054906101000a900473ffffffffffffffffffffffffffffffffffffffff169050919050565b600061050b826106fc565b90508073ffffffffffffffffffffffffffffffffffffffff168373ffffffffffffffffffffffffffffffffffffffff16141561057c576040517f08c379a0000000000000000000000000000000000000000000000000000000008152600401610573906125f3565b60405180910390fd5b8073ffffffffffffffffffffffffffffffffffffffff1661059b610d97565b73ffffffffffffffffffffffffffffffffffffffff1614806105ca57506105c9816105c4610d97565b610c2d565b5b610609576040517f08c379a0000000000000000000000000000000000000000000000000000000008152600401610600906124d3565b60405180910390fd5b6106138383610d9f565b505050565b610629610623610d97565b82610e58565b610668576040517f08c379a000000000000000000000000000000000000000000000000000000000815260040161065f90612613565b60405180910390fd5b610673838383610f36565b505050565b60006106846007611192565b600061069060076111a8565b905061069c33826111b6565b6106a68184611384565b6106d3600860009054906101000a900473ffffffffffffffffffffffffffffffffffffffff1660016108f8565b80915050919050565b6106f783838360405180602001604052806000815250610a79565b505050565b6000806002600084815260200190815260200160002060009054906101000a900473ffffffffffffffffffffffffffffffffffffffff169050600073ffffffffffffffffffffffffffffffffffffffff168173ffffffffffffffffffffffffffffffffffffffff1614156107a5576040517f08c379a000000000000000000000000000000000000000000000000000000000815260040161079c90612513565b60405180910390fd5b80915050919050565b60008073ffffffffffffffffffffffffffffffffffffffff168273ffffffffffffffffffffffffffffffffffffffff16141561081f576040517f08c379a0000000000000000000000000000000000000000000000000000000008152600401610816906124f3565b60405180910390fd5b600360008373ffffffffffffffffffffffffffffffffffffffff1673ffffffffffffffffffffffffffffffffffffffff168152602001908152602001600020549050919050565b60606001805461087590612893565b80601f01602080910402602001604051908101604052809291908181526020018280546108a190612893565b80156108ee5780601f106108c3576101008083540402835291602001916108ee565b820191906000526020600020905b8154815290600101906020018083116108d157829003601f168201915b5050505050905090565b610900610d97565b73ffffffffffffffffffffffffffffffffffffffff168273ffffffffffffffffffffffffffffffffffffffff16141561096e576040517f08c379a000000000000000000000000000000000000000000000000000000000815260040161096590612493565b60405180910390fd5b806005600061097b610d97565b73ffffffffffffffffffffffffffffffffffffffff1673ffffffffffffffffffffffffffffffffffffffff16815260200190815260200160002060008473ffffffffffffffffffffffffffffffffffffffff1673ffffffffffffffffffffffffffffffffffffffff16815260200190815260200160002060006101000a81548160ff0219169083151502179055508173ffffffffffffffffffffffffffffffffffffffff16610a28610d97565b73ffffffffffffffffffffffffffffffffffffffff167f17307eab39ab6107e8899845ad3d59bd9653f200f220920489ca2b5937696c3183604051610a6d91906123f6565b60405180910390a35050565b610a8a610a84610d97565b83610e58565b610ac9576040517f08c379a0000000000000000000000000000000000000000000000000000000008152600401610ac090612613565b60405180910390fd5b610ad5848484846113f8565b50505050565b6060610ae682610d2b565b610b25576040517f08c379a0000000000000000000000000000000000000000000000000000000008152600401610b1c90612573565b60405180910390fd5b6000600660008481526020019081526020016000208054610b4590612893565b80601f0160208091040260200160405190810160405280929190818152602001828054610b7190612893565b8015610bbe5780601f10610b9357610100808354040283529160200191610bbe565b820191906000526020600020905b815481529060010190602001808311610ba157829003601f168201915b505050505090506000610bcf611454565b9050600081511415610be5578192505050610c28565b600082511115610c1a578082604051602001610c0292919061236b565b60405160208183030381529060405292505050610c28565b610c238461146b565b925050505b919050565b6000600560008473ffffffffffffffffffffffffffffffffffffffff1673ffffffffffffffffffffffffffffffffffffffff16815260200190815260200160002060008373ffffffffffffffffffffffffffffffffffffffff1673ffffffffffffffffffffffffffffffffffffffff16815260200190815260200160002060009054906101000a900460ff16905092915050565b60007f01ffc9a7000000000000000000000000000000000000000000000000000000007bffffffffffffffffffffffffffffffffffffffffffffffffffffffff1916827bffffffffffffffffffffffffffffffffffffffffffffffffffffffff1916149050919050565b60008073ffffffffffffffffffffffffffffffffffffffff166002600084815260200190815260200160002060009054906101000a900473ffffffffffffffffffffffffffffffffffffffff1673ffffffffffffffffffffffffffffffffffffffff1614159050919050565b600033905090565b816004600083815260200190815260200160002060006101000a81548173ffffffffffffffffffffffffffffffffffffffff021916908373ffffffffffffffffffffffffffffffffffffffff160217905550808273ffffffffffffffffffffffffffffffffffffffff16610e12836106fc565b73ffffffffffffffffffffffffffffffffffffffff167f8c5be1e5ebec7d5bd14f71427d1e84f3dd0314c0f7b2291e5b200ac8c7c3b92560405160405180910390a45050565b6000610e6382610d2b565b610ea2576040517f08c379a0000000000000000000000000000000000000000000000000000000008152600401610e99906124b3565b60405180910390fd5b6000610ead836106fc565b90508073ffffffffffffffffffffffffffffffffffffffff168473ffffffffffffffffffffffffffffffffffffffff161480610f1c57508373ffffffffffffffffffffffffffffffffffffffff16610f048461047b565b73ffffffffffffffffffffffffffffffffffffffff16145b80610f2d5750610f2c8185610c2d565b5b91505092915050565b8273ffffffffffffffffffffffffffffffffffffffff16610f56826106fc565b73ffffffffffffffffffffffffffffffffffffffff1614610fac576040517f08c379a0000000000000000000000000000000000000000000000000000000008152600401610fa3906125b3565b60405180910390fd5b600073ffffffffffffffffffffffffffffffffffffffff168273ffffffffffffffffffffffffffffffffffffffff16141561101c576040517f08c379a000000000000000000000000000000000000000000000000000000000815260040161101390612473565b60405180910390fd5b611027838383611512565b611032600082610d9f565b6001600360008573ffffffffffffffffffffffffffffffffffffffff1673ffffffffffffffffffffffffffffffffffffffff168152602001908152602001600020600082825461108291906127a9565b925050819055506001600360008473ffffffffffffffffffffffffffffffffffffffff1673ffffffffffffffffffffffffffffffffffffffff16815260200190815260200160002060008282546110d99190612722565b92505081905550816002600083815260200190815260200160002060006101000a81548173ffffffffffffffffffffffffffffffffffffffff021916908373ffffffffffffffffffffffffffffffffffffffff160217905550808273ffffffffffffffffffffffffffffffffffffffff168473ffffffffffffffffffffffffffffffffffffffff167fddf252ad1be2c89b69c2b068fc378daa952ba7f163c4a11628f55a4df523b3ef60405160405180910390a4505050565b6001816000016000828254019250508190555050565b600081600001549050919050565b600073ffffffffffffffffffffffffffffffffffffffff168273ffffffffffffffffffffffffffffffffffffffff161415611226576040517f08c379a000000000000000000000000000000000000000000000000000000000815260040161121d90612553565b60405180910390fd5b61122f81610d2b565b1561126f576040517f08c379a000000000000000000000000000000000000000000000000000000000815260040161126690612453565b60405180910390fd5b61127b60008383611512565b6001600360008473ffffffffffffffffffffffffffffffffffffffff1673ffffffffffffffffffffffffffffffffffffffff16815260200190815260200160002060008282546112cb9190612722565b92505081905550816002600083815260200190815260200160002060006101000a81548173ffffffffffffffffffffffffffffffffffffffff021916908373ffffffffffffffffffffffffffffffffffffffff160217905550808273ffffffffffffffffffffffffffffffffffffffff16600073ffffffffffffffffffffffffffffffffffffffff167fddf252ad1be2c89b69c2b068fc378daa952ba7f163c4a11628f55a4df523b3ef60405160405180910390a45050565b61138d82610d2b565b6113cc576040517f08c379a00000000000000000000000000000000000000000000000000000000081526004016113c390612533565b60405180910390fd5b806006600084815260200190815260200160002090805190602001906113f392919061186e565b505050565b611403848484610f36565b61140f84848484611517565b61144e576040517f08c379a000000000000000000000000000000000000000000000000000000000815260040161144590612433565b60405180910390fd5b50505050565b606060405180602001604052806000815250905090565b606061147682610d2b565b6114b5576040517f08c379a00000000000000000000000000000000000000000000000000000000081526004016114ac906125d3565b60405180910390fd5b60006114bf611454565b905060008151116114df576040518060200160405280600081525061150a565b806114e9846116ae565b6040516020016114fa92919061236b565b6040516020818303038152906040525b915050919050565b505050565b60006115388473ffffffffffffffffffffffffffffffffffffffff1661185b565b156116a1578373ffffffffffffffffffffffffffffffffffffffff1663150b7a02611561610d97565b8786866040518563ffffffff1660e01b815260040161158394939291906123aa565b602060405180830381600087803b15801561159d57600080fd5b505af19250505080156115ce57506040513d601f19601f820116820180604052508101906115cb9190611c1a565b60015b611651573d80600081146115fe576040519150601f19603f3d011682016040523d82523d6000602084013e611603565b606091505b50600081511415611649576040517f08c379a000000000000000000000000000000000000000000000000000000000815260040161164090612433565b60405180910390fd5b805181602001fd5b63150b7a0260e01b7bffffffffffffffffffffffffffffffffffffffffffffffffffffffff1916817bffffffffffffffffffffffffffffffffffffffffffffffffffffffff1916149150506116a6565b600190505b949350505050565b606060008214156116f6576040518060400160405280600181526020017f30000000000000000000000000000000000000000000000000000000000000008152509050611856565b600082905060005b60008214611728578080611711906128c5565b915050600a826117219190612778565b91506116fe565b60008167ffffffffffffffff81111561176a577f4e487b7100000000000000000000000000000000000000000000000000000000600052604160045260246000fd5b6040519080825280601f01601f19166020018201604052801561179c5781602001600182028036833780820191505090505b5090505b6000851461184f576001826117b591906127a9565b9150600a856117c4919061290e565b60306117d09190612722565b60f81b81838151811061180c577f4e487b7100000000000000000000000000000000000000000000000000000000600052603260045260246000fd5b60200101907effffffffffffffffffffffffffffffffffffffffffffffffffffffffffffff1916908160001a905350600a856118489190612778565b94506117a0565b8093505050505b919050565b600080823b905060008111915050919050565b82805461187a90612893565b90600052602060002090601f01602090048101928261189c57600085556118e3565b82601f106118b557805160ff19168380011785556118e3565b828001600101855582156118e3579182015b828111156118e25782518255916020019190600101906118c7565b5b5090506118f091906118f4565b5090565b5b8082111561190d5760008160009055506001016118f5565b5090565b600061192461191f8461267f565b61264e565b90508281526020810184848401111561193c57600080fd5b611947848285612851565b509392505050565b600061196261195d846126af565b61264e565b90508281526020810184848401111561197a57600080fd5b611985848285612851565b509392505050565b60008135905061199c81612a0c565b92915050565b6000813590506119b181612a23565b92915050565b6000813590506119c681612a3a565b92915050565b6000815190506119db81612a3a565b92915050565b600082601f8301126119f257600080fd5b8135611a02848260208601611911565b91505092915050565b600082601f830112611a1c57600080fd5b8135611a2c84826020860161194f565b91505092915050565b600081359050611a4481612a51565b92915050565b600060208284031215611a5c57600080fd5b6000611a6a8482850161198d565b91505092915050565b60008060408385031215611a8657600080fd5b6000611a948582860161198d565b9250506020611aa58582860161198d565b9150509250929050565b600080600060608486031215611ac457600080fd5b6000611ad28682870161198d565b9350506020611ae38682870161198d565b9250506040611af486828701611a35565b9150509250925092565b60008060008060808587031215611b1457600080fd5b6000611b228782880161198d565b9450506020611b338782880161198d565b9350506040611b4487828801611a35565b925050606085013567ffffffffffffffff811115611b6157600080fd5b611b6d878288016119e1565b91505092959194509250565b60008060408385031215611b8c57600080fd5b6000611b9a8582860161198d565b9250506020611bab858286016119a2565b9150509250929050565b60008060408385031215611bc857600080fd5b6000611bd68582860161198d565b9250506020611be785828601611a35565b9150509250929050565b600060208284031215611c0357600080fd5b6000611c11848285016119b7565b91505092915050565b600060208284031215611c2c57600080fd5b6000611c3a848285016119cc565b91505092915050565b600060208284031215611c5557600080fd5b600082013567ffffffffffffffff811115611c6f57600080fd5b611c7b84828501611a0b565b91505092915050565b600060208284031215611c9657600080fd5b6000611ca484828501611a35565b91505092915050565b611cb6816127dd565b82525050565b611cc5816127ef565b82525050565b6000611cd6826126df565b611ce081856126f5565b9350611cf0818560208601612860565b611cf9816129fb565b840191505092915050565b6000611d0f826126ea565b611d198185612706565b9350611d29818560208601612860565b611d32816129fb565b840191505092915050565b6000611d48826126ea565b611d528185612717565b9350611d62818560208601612860565b80840191505092915050565b6000611d7b603283612706565b91507f4552433732313a207472616e7366657220746f206e6f6e20455243373231526560008301527f63656976657220696d706c656d656e74657200000000000000000000000000006020830152604082019050919050565b6000611de1601c83612706565b91507f4552433732313a20746f6b656e20616c7265616479206d696e746564000000006000830152602082019050919050565b6000611e21602483612706565b91507f4552433732313a207472616e7366657220746f20746865207a65726f2061646460008301527f72657373000000000000000000000000000000000000000000000000000000006020830152604082019050919050565b6000611e87601983612706565b91507f4552433732313a20617070726f766520746f2063616c6c6572000000000000006000830152602082019050919050565b6000611ec7602c83612706565b91507f4552433732313a206f70657261746f7220717565727920666f72206e6f6e657860008301527f697374656e7420746f6b656e00000000000000000000000000000000000000006020830152604082019050919050565b6000611f2d603883612706565b91507f4552433732313a20617070726f76652063616c6c6572206973206e6f74206f7760008301527f6e6572206e6f7220617070726f76656420666f7220616c6c00000000000000006020830152604082019050919050565b6000611f93602a83612706565b91507f4552433732313a2062616c616e636520717565727920666f7220746865207a6560008301527f726f2061646472657373000000000000000000000000000000000000000000006020830152604082019050919050565b6000611ff9602983612706565b91507f4552433732313a206f776e657220717565727920666f72206e6f6e657869737460008301527f656e7420746f6b656e00000000000000000000000000000000000000000000006020830152604082019050919050565b600061205f602e83612706565b91507f45524337323155524953746f726167653a2055524920736574206f66206e6f6e60008301527f6578697374656e7420746f6b656e0000000000000000000000000000000000006020830152604082019050919050565b60006120c5602083612706565b91507f4552433732313a206d696e7420746f20746865207a65726f20616464726573736000830152602082019050919050565b6000612105603183612706565b91507f45524337323155524953746f726167653a2055524920717565727920666f722060008301527f6e6f6e6578697374656e7420746f6b656e0000000000000000000000000000006020830152604082019050919050565b600061216b602c83612706565b91507f4552433732313a20617070726f76656420717565727920666f72206e6f6e657860008301527f697374656e7420746f6b656e00000000000000000000000000000000000000006020830152604082019050919050565b60006121d1602983612706565b91507f4552433732313a207472616e73666572206f6620746f6b656e2074686174206960008301527f73206e6f74206f776e00000000000000000000000000000000000000000000006020830152604082019050919050565b6000612237602f83612706565b91507f4552433732314d657461646174613a2055524920717565727920666f72206e6f60008301527f6e6578697374656e7420746f6b656e00000000000000000000000000000000006020830152604082019050919050565b600061229d602183612706565b91507f4552433732313a20617070726f76616c20746f2063757272656e74206f776e6560008301527f72000000000000000000000000000000000000000000000000000000000000006020830152604082019050919050565b6000612303603183612706565b91507f4552433732313a207472616e736665722063616c6c6572206973206e6f74206f60008301527f776e6572206e6f7220617070726f7665640000000000000000000000000000006020830152604082019050919050565b61236581612847565b82525050565b60006123778285611d3d565b91506123838284611d3d565b91508190509392505050565b60006020820190506123a46000830184611cad565b92915050565b60006080820190506123bf6000830187611cad565b6123cc6020830186611cad565b6123d9604083018561235c565b81810360608301526123eb8184611ccb565b905095945050505050565b600060208201905061240b6000830184611cbc565b92915050565b6000602082019050818103600083015261242b8184611d04565b905092915050565b6000602082019050818103600083015261244c81611d6e565b9050919050565b6000602082019050818103600083015261246c81611dd4565b9050919050565b6000602082019050818103600083015261248c81611e14565b9050919050565b600060208201905081810360008301526124ac81611e7a565b9050919050565b600060208201905081810360008301526124cc81611eba565b9050919050565b600060208201905081810360008301526124ec81611f20565b9050919050565b6000602082019050818103600083015261250c81611f86565b9050919050565b6000602082019050818103600083015261252c81611fec565b9050919050565b6000602082019050818103600083015261254c81612052565b9050919050565b6000602082019050818103600083015261256c816120b8565b9050919050565b6000602082019050818103600083015261258c816120f8565b9050919050565b600060208201905081810360008301526125ac8161215e565b9050919050565b600060208201905081810360008301526125cc816121c4565b9050919050565b600060208201905081810360008301526125ec8161222a565b9050919050565b6000602082019050818103600083015261260c81612290565b9050919050565b6000602082019050818103600083015261262c816122f6565b9050919050565b6000602082019050612648600083018461235c565b92915050565b6000604051905081810181811067ffffffffffffffff82111715612675576126746129cc565b5b8060405250919050565b600067ffffffffffffffff82111561269a576126996129cc565b5b601f19601f8301169050602081019050919050565b600067ffffffffffffffff8211156126ca576126c96129cc565b5b601f19601f8301169050602081019050919050565b600081519050919050565b600081519050919050565b600082825260208201905092915050565b600082825260208201905092915050565b600081905092915050565b600061272d82612847565b915061273883612847565b9250827fffffffffffffffffffffffffffffffffffffffffffffffffffffffffffffffff0382111561276d5761276c61293f565b5b828201905092915050565b600061278382612847565b915061278e83612847565b92508261279e5761279d61296e565b5b828204905092915050565b60006127b482612847565b91506127bf83612847565b9250828210156127d2576127d161293f565b5b828203905092915050565b60006127e882612827565b9050919050565b60008115159050919050565b60007fffffffff0000000000000000000000000000000000000000000000000000000082169050919050565b600073ffffffffffffffffffffffffffffffffffffffff82169050919050565b6000819050919050565b82818337600083830152505050565b60005b8381101561287e578082015181840152602081019050612863565b8381111561288d576000848401525b50505050565b600060028204905060018216806128ab57607f821691505b602082108114156128bf576128be61299d565b5b50919050565b60006128d082612847565b91507fffffffffffffffffffffffffffffffffffffffffffffffffffffffffffffffff8214156129035761290261293f565b5b600182019050919050565b600061291982612847565b915061292483612847565b9250826129345761293361296e565b5b828206905092915050565b7f4e487b7100000000000000000000000000000000000000000000000000000000600052601160045260246000fd5b7f4e487b7100000000000000000000000000000000000000000000000000000000600052601260045260246000fd5b7f4e487b7100000000000000000000000000000000000000000000000000000000600052602260045260246000fd5b7f4e487b7100000000000000000000000000000000000000000000000000000000600052604160045260246000fd5b6000601f19601f8301169050919050565b612a15816127dd565b8114612a2057600080fd5b50565b612a2c816127ef565b8114612a3757600080fd5b50565b612a43816127fb565b8114612a4e57600080fd5b50565b612a5a81612847565b8114612a6557600080fd5b5056fea264697066735822122085f38b0b91d0a26921c65ab811c828d0901712770c51b5f1ff5960b4dc4f9eff64736f6c63430008000033",
  "immutableReferences": {},
  "source": "// SPDX-License-Identifier: MIT OR Apache-2.0\n\npragma solidity ^0.8.0;\n\nimport \"@openzeppelin/contracts/utils/Counters.sol\";\nimport \"@openzeppelin/contracts/token/ERC721/extensions/ERC721URIStorage.sol\";\nimport \"@openzeppelin/contracts/token/ERC721/ERC721.sol\";\n\n//TODO: testing import, remove for production\nimport \"hardhat/console.sol\";\n\n\n\ncontract Artifact is ERC721URIStorage {\n    using Counters for Counters.Counter;\n    Counters.Counter private _ArtifactTokenIds;\n    address HISAddress;\n\n//TODO: figure out the addy for History's Vault main contract.\n    constructor(address mpAddress) ERC721(\"History's Vault\", \"HIS\") {\n        HISAddress = mpAddress;\n    }\n\n    function createArtifactToken(string memory _tokenURI) public returns (uint) {\n        _ArtifactTokenIds.increment();\n        uint256 newArtifactTokenId = _ArtifactTokenIds.current();\n\n        _mint(msg.sender, newArtifactTokenId);\n        _setTokenURI(newArtifactTokenId, _tokenURI);\n        setApprovalForAll(HISAddress, true);\n        return newArtifactTokenId;\n    }\n}",
  "sourcePath": "/Users/zouvier/projects/HistorysVault/contracts/Artifacts.sol",
  "compiler": {
    "name": "solc",
    "version": "0.8.0+commit.c7dfd78e.Emscripten.clang"
  },
  "schemaVersion": "3.4.1",
  "updatedAt": "2021-09-14T05:06:11.144Z",
  "networkType": "ethereum",
  "devdoc": {
    "kind": "dev",
    "methods": {
      "approve(address,uint256)": {
        "details": "See {IERC721-approve}."
      },
      "balanceOf(address)": {
        "details": "See {IERC721-balanceOf}."
      },
      "getApproved(uint256)": {
        "details": "See {IERC721-getApproved}."
      },
      "isApprovedForAll(address,address)": {
        "details": "See {IERC721-isApprovedForAll}."
      },
      "name()": {
        "details": "See {IERC721Metadata-name}."
      },
      "ownerOf(uint256)": {
        "details": "See {IERC721-ownerOf}."
      },
      "safeTransferFrom(address,address,uint256)": {
        "details": "See {IERC721-safeTransferFrom}."
      },
      "safeTransferFrom(address,address,uint256,bytes)": {
        "details": "See {IERC721-safeTransferFrom}."
      },
      "setApprovalForAll(address,bool)": {
        "details": "See {IERC721-setApprovalForAll}."
      },
      "supportsInterface(bytes4)": {
        "details": "See {IERC165-supportsInterface}."
      },
      "symbol()": {
        "details": "See {IERC721Metadata-symbol}."
      },
      "tokenURI(uint256)": {
        "details": "See {IERC721Metadata-tokenURI}."
      },
      "transferFrom(address,address,uint256)": {
        "details": "See {IERC721-transferFrom}."
      }
    },
    "version": 1
  },
  "userdoc": {
    "kind": "user",
    "methods": {},
    "version": 1
  }
}