{
  "contractName": "HistorysVault",
  "abi": [
    {
      "anonymous": false,
      "inputs": [
        {
          "indexed": true,
          "internalType": "uint256",
          "name": "artifactId",
          "type": "uint256"
        },
        {
          "indexed": true,
          "internalType": "uint256",
          "name": "ArtifactTokenId",
          "type": "uint256"
        },
        {
          "indexed": false,
          "internalType": "uint256",
          "name": "artifactPrice",
          "type": "uint256"
        },
        {
          "indexed": true,
          "internalType": "address",
          "name": "ArtifactNFTContract",
          "type": "address"
        },
        {
          "indexed": false,
          "internalType": "address",
          "name": "currentArtifactOwner",
          "type": "address"
        },
        {
          "indexed": false,
          "internalType": "address",
          "name": "OriginalArtifactOwner",
          "type": "address"
        }
      ],
      "name": "ArtifactItemCreated",
      "type": "event"
    },
    {
      "inputs": [
        {
          "internalType": "uint256",
          "name": "artifactItemId",
          "type": "uint256"
        }
      ],
      "name": "getArtifactItem",
      "outputs": [
        {
          "components": [
            {
              "internalType": "uint256",
              "name": "artifactId",
              "type": "uint256"
            },
            {
              "internalType": "uint256",
              "name": "artifactPrice",
              "type": "uint256"
            },
            {
              "internalType": "uint256",
              "name": "ArtifactTokenId",
              "type": "uint256"
            },
            {
              "internalType": "address",
              "name": "ArtifactNFTContract",
              "type": "address"
            },
            {
              "internalType": "address payable",
              "name": "currentArtifactOwner",
              "type": "address"
            },
            {
              "internalType": "address payable",
              "name": "OriginalArtifactOwner",
              "type": "address"
            }
          ],
          "internalType": "struct HistorysVault.ArtifactItem",
          "name": "",
          "type": "tuple"
        }
      ],
      "stateMutability": "view",
      "type": "function"
    },
    {
      "inputs": [
        {
          "internalType": "address",
          "name": "ArtifactNFTContract",
          "type": "address"
        },
        {
          "internalType": "uint256",
          "name": "ArtifactTokenId",
          "type": "uint256"
        },
        {
          "internalType": "uint256",
          "name": "artifactPrice",
          "type": "uint256"
        }
      ],
      "name": "createArtifactitem",
      "outputs": [],
      "stateMutability": "payable",
      "type": "function"
    },
    {
      "inputs": [
        {
          "internalType": "address",
          "name": "ArtifactNFTContract",
          "type": "address"
        },
        {
          "internalType": "uint256",
          "name": "artifactId",
          "type": "uint256"
        }
      ],
      "name": "createArtifactSale",
      "outputs": [],
      "stateMutability": "payable",
      "type": "function"
    },
    {
      "inputs": [
        {
          "internalType": "uint256",
          "name": "artifactId",
          "type": "uint256"
        }
      ],
      "name": "fetchArtifactItem",
      "outputs": [
        {
          "components": [
            {
              "internalType": "uint256",
              "name": "artifactId",
              "type": "uint256"
            },
            {
              "internalType": "uint256",
              "name": "artifactPrice",
              "type": "uint256"
            },
            {
              "internalType": "uint256",
              "name": "ArtifactTokenId",
              "type": "uint256"
            },
            {
              "internalType": "address",
              "name": "ArtifactNFTContract",
              "type": "address"
            },
            {
              "internalType": "address payable",
              "name": "currentArtifactOwner",
              "type": "address"
            },
            {
              "internalType": "address payable",
              "name": "OriginalArtifactOwner",
              "type": "address"
            }
          ],
          "internalType": "struct HistorysVault.ArtifactItem",
          "name": "",
          "type": "tuple"
        }
      ],
      "stateMutability": "view",
      "type": "function"
    },
    {
      "inputs": [],
      "name": "fetchArtifactItems",
      "outputs": [
        {
          "components": [
            {
              "internalType": "uint256",
              "name": "artifactId",
              "type": "uint256"
            },
            {
              "internalType": "uint256",
              "name": "artifactPrice",
              "type": "uint256"
            },
            {
              "internalType": "uint256",
              "name": "ArtifactTokenId",
              "type": "uint256"
            },
            {
              "internalType": "address",
              "name": "ArtifactNFTContract",
              "type": "address"
            },
            {
              "internalType": "address payable",
              "name": "currentArtifactOwner",
              "type": "address"
            },
            {
              "internalType": "address payable",
              "name": "OriginalArtifactOwner",
              "type": "address"
            }
          ],
          "internalType": "struct HistorysVault.ArtifactItem[]",
          "name": "",
          "type": "tuple[]"
        }
      ],
      "stateMutability": "view",
      "type": "function"
    },
    {
      "inputs": [],
      "name": "fetchMyArtifacts",
      "outputs": [
        {
          "components": [
            {
              "internalType": "uint256",
              "name": "artifactId",
              "type": "uint256"
            },
            {
              "internalType": "uint256",
              "name": "artifactPrice",
              "type": "uint256"
            },
            {
              "internalType": "uint256",
              "name": "ArtifactTokenId",
              "type": "uint256"
            },
            {
              "internalType": "address",
              "name": "ArtifactNFTContract",
              "type": "address"
            },
            {
              "internalType": "address payable",
              "name": "currentArtifactOwner",
              "type": "address"
            },
            {
              "internalType": "address payable",
              "name": "OriginalArtifactOwner",
              "type": "address"
            }
          ],
          "internalType": "struct HistorysVault.ArtifactItem[]",
          "name": "",
          "type": "tuple[]"
        }
      ],
      "stateMutability": "view",
      "type": "function"
    }
  ],
  "bytecode": "0x608060405234801561001057600080fd5b506001600081905550611727806100286000396000f3fe6080604052600436106100555760003560e01c80632005d79d1461005a578063637bba09146100765780637e0d1342146100a1578063e9dbcc8b146100cc578063f8d9232a146100e8578063fe66a02a14610125575b600080fd5b610074600480360381019061006f91906110bd565b610162565b005b34801561008257600080fd5b5061008b610456565b6040516100989190611455565b60405180910390f35b3480156100ad57600080fd5b506100b66107eb565b6040516100c39190611455565b60405180910390f35b6100e660048036038101906100e19190611081565b610afc565b005b3480156100f457600080fd5b5061010f600480360381019061010a919061110c565b610d1b565b60405161011c91906114d7565b60405180910390f35b34801561013157600080fd5b5061014c6004803603810190610147919061110c565b610e68565b60405161015991906114d7565b60405180910390f35b600260005414156101a8576040517f08c379a000000000000000000000000000000000000000000000000000000000815260040161019f906114b7565b60405180910390fd5b6002600081905550600081116101f3576040517f08c379a00000000000000000000000000000000000000000000000000000000081526004016101ea90611497565b60405180910390fd5b6101fd6001610fbb565b60006102096001610fd1565b90506040518060c001604052808281526020018481526020018381526020018573ffffffffffffffffffffffffffffffffffffffff1681526020013373ffffffffffffffffffffffffffffffffffffffff168152602001600073ffffffffffffffffffffffffffffffffffffffff168152506003600083815260200190815260200160002060008201518160000155602082015181600101556040820151816002015560608201518160030160006101000a81548173ffffffffffffffffffffffffffffffffffffffff021916908373ffffffffffffffffffffffffffffffffffffffff16021790555060808201518160040160006101000a81548173ffffffffffffffffffffffffffffffffffffffff021916908373ffffffffffffffffffffffffffffffffffffffff16021790555060a08201518160050160006101000a81548173ffffffffffffffffffffffffffffffffffffffff021916908373ffffffffffffffffffffffffffffffffffffffff1602179055509050508373ffffffffffffffffffffffffffffffffffffffff166323b872dd3330866040518463ffffffff1660e01b81526004016103c19392919061141e565b600060405180830381600087803b1580156103db57600080fd5b505af11580156103ef573d6000803e3d6000fd5b505050508373ffffffffffffffffffffffffffffffffffffffff1683827ff629a168b9df9917991f02472cdbd75312d03045fb006140567aa58689e4981885336000604051610440939291906114f2565b60405180910390a4506001600081905550505050565b606060006104646001610fd1565b905060008060005b8381101561050d573373ffffffffffffffffffffffffffffffffffffffff166003600060018461049c9190611573565b815260200190815260200160002060050160009054906101000a900473ffffffffffffffffffffffffffffffffffffffff1673ffffffffffffffffffffffffffffffffffffffff1614156104fa576001836104f79190611573565b92505b80806105059061164b565b91505061046c565b5060008267ffffffffffffffff811115610550577f4e487b7100000000000000000000000000000000000000000000000000000000600052604160045260246000fd5b60405190808252806020026020018201604052801561058957816020015b610576610fdf565b81526020019060019003908161056e5790505b50905060005b848110156107e0573373ffffffffffffffffffffffffffffffffffffffff16600360006001846105bf9190611573565b815260200190815260200160002060050160009054906101000a900473ffffffffffffffffffffffffffffffffffffffff1673ffffffffffffffffffffffffffffffffffffffff1614156107cd576000600360006001846106209190611573565b81526020019081526020016000206000015490506000600360008381526020019081526020016000209050806040518060c00160405290816000820154815260200160018201548152602001600282015481526020016003820160009054906101000a900473ffffffffffffffffffffffffffffffffffffffff1673ffffffffffffffffffffffffffffffffffffffff1673ffffffffffffffffffffffffffffffffffffffff1681526020016004820160009054906101000a900473ffffffffffffffffffffffffffffffffffffffff1673ffffffffffffffffffffffffffffffffffffffff1673ffffffffffffffffffffffffffffffffffffffff1681526020016005820160009054906101000a900473ffffffffffffffffffffffffffffffffffffffff1673ffffffffffffffffffffffffffffffffffffffff1673ffffffffffffffffffffffffffffffffffffffff16815250508486815181106107b0577f4e487b7100000000000000000000000000000000000000000000000000000000600052603260045260246000fd5b60200260200101819052506001856107c89190611573565b945050505b80806107d89061164b565b91505061058f565b508094505050505090565b606060006107f96001610fd1565b905060006108076002610fd1565b6108116001610fd1565b61081b91906115c9565b90506000808267ffffffffffffffff811115610860577f4e487b7100000000000000000000000000000000000000000000000000000000600052604160045260246000fd5b60405190808252806020026020018201604052801561089957816020015b610886610fdf565b81526020019060019003908161087e5790505b50905060005b84811015610af157600073ffffffffffffffffffffffffffffffffffffffff16600360006001846108d09190611573565b815260200190815260200160002060050160009054906101000a900473ffffffffffffffffffffffffffffffffffffffff1673ffffffffffffffffffffffffffffffffffffffff161415610ade576000600360006001846109319190611573565b81526020019081526020016000206000015490506000600360008381526020019081526020016000209050806040518060c00160405290816000820154815260200160018201548152602001600282015481526020016003820160009054906101000a900473ffffffffffffffffffffffffffffffffffffffff1673ffffffffffffffffffffffffffffffffffffffff1673ffffffffffffffffffffffffffffffffffffffff1681526020016004820160009054906101000a900473ffffffffffffffffffffffffffffffffffffffff1673ffffffffffffffffffffffffffffffffffffffff1673ffffffffffffffffffffffffffffffffffffffff1681526020016005820160009054906101000a900473ffffffffffffffffffffffffffffffffffffffff1673ffffffffffffffffffffffffffffffffffffffff1673ffffffffffffffffffffffffffffffffffffffff1681525050848681518110610ac1577f4e487b7100000000000000000000000000000000000000000000000000000000600052603260045260246000fd5b6020026020010181905250600185610ad99190611573565b945050505b8080610ae99061164b565b91505061089f565b508094505050505090565b60026000541415610b42576040517f08c379a0000000000000000000000000000000000000000000000000000000008152600401610b39906114b7565b60405180910390fd5b6002600081905550600060036000838152602001908152602001600020600101549050600060036000848152602001908152602001600020600201549050813414610bc2576040517f08c379a0000000000000000000000000000000000000000000000000000000008152600401610bb990611477565b60405180910390fd5b6003600084815260200190815260200160002060040160009054906101000a900473ffffffffffffffffffffffffffffffffffffffff1673ffffffffffffffffffffffffffffffffffffffff166108fc349081150290604051600060405180830381858888f19350505050158015610c3e573d6000803e3d6000fd5b508373ffffffffffffffffffffffffffffffffffffffff166323b872dd3033846040518463ffffffff1660e01b8152600401610c7c9392919061141e565b600060405180830381600087803b158015610c9657600080fd5b505af1158015610caa573d6000803e3d6000fd5b50505050336003600085815260200190815260200160002060050160006101000a81548173ffffffffffffffffffffffffffffffffffffffff021916908373ffffffffffffffffffffffffffffffffffffffff160217905550610d0d6002610fbb565b505060016000819055505050565b610d23610fdf565b600360008381526020019081526020016000206040518060c00160405290816000820154815260200160018201548152602001600282015481526020016003820160009054906101000a900473ffffffffffffffffffffffffffffffffffffffff1673ffffffffffffffffffffffffffffffffffffffff1673ffffffffffffffffffffffffffffffffffffffff1681526020016004820160009054906101000a900473ffffffffffffffffffffffffffffffffffffffff1673ffffffffffffffffffffffffffffffffffffffff1673ffffffffffffffffffffffffffffffffffffffff1681526020016005820160009054906101000a900473ffffffffffffffffffffffffffffffffffffffff1673ffffffffffffffffffffffffffffffffffffffff1673ffffffffffffffffffffffffffffffffffffffff16815250509050919050565b610e70610fdf565b6000600360008481526020019081526020016000206040518060c00160405290816000820154815260200160018201548152602001600282015481526020016003820160009054906101000a900473ffffffffffffffffffffffffffffffffffffffff1673ffffffffffffffffffffffffffffffffffffffff1673ffffffffffffffffffffffffffffffffffffffff1681526020016004820160009054906101000a900473ffffffffffffffffffffffffffffffffffffffff1673ffffffffffffffffffffffffffffffffffffffff1673ffffffffffffffffffffffffffffffffffffffff1681526020016005820160009054906101000a900473ffffffffffffffffffffffffffffffffffffffff1673ffffffffffffffffffffffffffffffffffffffff1673ffffffffffffffffffffffffffffffffffffffff1681525050905080915050919050565b6001816000016000828254019250508190555050565b600081600001549050919050565b6040518060c00160405280600081526020016000815260200160008152602001600073ffffffffffffffffffffffffffffffffffffffff168152602001600073ffffffffffffffffffffffffffffffffffffffff168152602001600073ffffffffffffffffffffffffffffffffffffffff1681525090565b600081359050611066816116c3565b92915050565b60008135905061107b816116da565b92915050565b6000806040838503121561109457600080fd5b60006110a285828601611057565b92505060206110b38582860161106c565b9150509250929050565b6000806000606084860312156110d257600080fd5b60006110e086828701611057565b93505060206110f18682870161106c565b92505060406111028682870161106c565b9150509250925092565b60006020828403121561111e57600080fd5b600061112c8482850161106c565b91505092915050565b6000611141838361130a565b60c08301905092915050565b6111568161160f565b82525050565b611165816115fd565b82525050565b611174816115fd565b82525050565b600061118582611539565b61118f8185611551565b935061119a83611529565b8060005b838110156111cb5781516111b28882611135565b97506111bd83611544565b92505060018101905061119e565b5085935050505092915050565b60006111e5604883611562565b91507f506c65617365207375626d6974207468652061736b696e67206172746966616360008301527f74507269636520696e206f7264657220746f20636f6d706c657465207468652060208301527f70757263686173650000000000000000000000000000000000000000000000006040830152606082019050919050565b6000611271602483611562565b91507f61727469666163745072696365206d757374206265206174206c65617374203160008301527f20776569000000000000000000000000000000000000000000000000000000006020830152604082019050919050565b60006112d7601f83611562565b91507f5265656e7472616e637947756172643a207265656e7472616e742063616c6c006000830152602082019050919050565b60c0820160008201516113206000850182611400565b5060208201516113336020850182611400565b5060408201516113466040850182611400565b506060820151611359606085018261115c565b50608082015161136c608085018261114d565b5060a082015161137f60a085018261114d565b50505050565b60c08201600082015161139b6000850182611400565b5060208201516113ae6020850182611400565b5060408201516113c16040850182611400565b5060608201516113d4606085018261115c565b5060808201516113e7608085018261114d565b5060a08201516113fa60a085018261114d565b50505050565b61140981611641565b82525050565b61141881611641565b82525050565b6000606082019050611433600083018661116b565b611440602083018561116b565b61144d604083018461140f565b949350505050565b6000602082019050818103600083015261146f818461117a565b905092915050565b60006020820190508181036000830152611490816111d8565b9050919050565b600060208201905081810360008301526114b081611264565b9050919050565b600060208201905081810360008301526114d0816112ca565b9050919050565b600060c0820190506114ec6000830184611385565b92915050565b6000606082019050611507600083018661140f565b611514602083018561116b565b611521604083018461116b565b949350505050565b6000819050602082019050919050565b600081519050919050565b6000602082019050919050565b600082825260208201905092915050565b600082825260208201905092915050565b600061157e82611641565b915061158983611641565b9250827fffffffffffffffffffffffffffffffffffffffffffffffffffffffffffffffff038211156115be576115bd611694565b5b828201905092915050565b60006115d482611641565b91506115df83611641565b9250828210156115f2576115f1611694565b5b828203905092915050565b600061160882611621565b9050919050565b600061161a82611621565b9050919050565b600073ffffffffffffffffffffffffffffffffffffffff82169050919050565b6000819050919050565b600061165682611641565b91507fffffffffffffffffffffffffffffffffffffffffffffffffffffffffffffffff82141561168957611688611694565b5b600182019050919050565b7f4e487b7100000000000000000000000000000000000000000000000000000000600052601160045260246000fd5b6116cc816115fd565b81146116d757600080fd5b50565b6116e381611641565b81146116ee57600080fd5b5056fea264697066735822122035d5cb2673b1711b07fe1b9117ea7385cc7b1096843f95b6d2a6996ac2bd921064736f6c63430008000033",
  "immutableReferences": {},
  "source": "//SPDX-License-Identifier: MIT\npragma solidity ^0.8.0;\n\nimport \"@openzeppelin/contracts/utils/Counters.sol\";\nimport \"@openzeppelin/contracts/token/ERC721/extensions/ERC721URIStorage.sol\";\nimport \"@openzeppelin/contracts/token/ERC721/ERC721.sol\";\nimport \"@openzeppelin/contracts/security/ReentrancyGuard.sol\";\n\n//TODO: testing import, remove for production\nimport \"hardhat/console.sol\";\n\n// the market place\ncontract HistorysVault is ReentrancyGuard {\n    \n  using Counters for Counters.Counter;\n  Counters.Counter private _artifactIds;\n  Counters.Counter private _artifactsSold;\n\n//@dev: strcut for the ArtifactItem\n// an ArtifactItem is the struct that will keep track of the NFTs for the marketplace \n  struct ArtifactItem {\n    uint artifactId;\n    uint256 artifactPrice;\n    uint256 ArtifactTokenId;\n    address ArtifactNFTContract;\n    address payable currentArtifactOwner;\n    address payable OriginalArtifactOwner;\n  }\n\n\n//@dev: mapp the NFT ID to it's struct \n  mapping(uint256 => ArtifactItem) private IdForArtifactItem;\n\n\n//@dev: event\n  event ArtifactItemCreated (\n    uint indexed artifactId,\n    uint256 indexed ArtifactTokenId,\n    uint256 artifactPrice,\n    address indexed ArtifactNFTContract,\n    address currentArtifactOwner,\n    address OriginalArtifactOwner\n  );\n\n\n//@dev: \n  function getArtifactItem(uint256 artifactItemId) public view returns (ArtifactItem memory) {\n    return IdForArtifactItem[artifactItemId];\n  }\n\n\n// @dev: transfer the NFT from user to the Market \n  function createArtifactitem(\n    address ArtifactNFTContract,\n    uint256 ArtifactTokenId,\n    uint256 artifactPrice\n  ) public payable nonReentrant {\n    require(artifactPrice > 0, \"artifactPrice must be at least 1 wei\");\n\n    _artifactIds.increment();\n    uint256 artifactId = _artifactIds.current();\n  \n    IdForArtifactItem[artifactId] =  ArtifactItem (\n      artifactId,\n      ArtifactTokenId,\n      artifactPrice,\n      ArtifactNFTContract,\n      payable(msg.sender),\n      payable(address(0))\n    );\n\n    IERC721(ArtifactNFTContract).transferFrom(msg.sender, address(this), ArtifactTokenId);\n\n    emit ArtifactItemCreated(\n      artifactId,\n      ArtifactTokenId,\n      artifactPrice,\n      ArtifactNFTContract,\n      msg.sender,\n      address(0)\n    );\n  }\n\n  function createArtifactSale(\n    address ArtifactNFTContract,\n    uint256 artifactId\n    ) public payable nonReentrant {\n    uint artifactPrice = IdForArtifactItem[artifactId].artifactPrice;\n    uint ArtifactTokenId = IdForArtifactItem[artifactId].ArtifactTokenId;\n    require(msg.value == artifactPrice, \"Please submit the asking artifactPrice in order to complete the purchase\");\n\n    IdForArtifactItem[artifactId].currentArtifactOwner.transfer(msg.value);\n    IERC721(ArtifactNFTContract).transferFrom(address(this), msg.sender, ArtifactTokenId);\n    IdForArtifactItem[artifactId].OriginalArtifactOwner = payable(msg.sender);\n    _artifactsSold.increment();\n  }\n\n  function fetchArtifactItem(uint artifactId) public view returns (ArtifactItem  memory) {\n    ArtifactItem  memory item = IdForArtifactItem[artifactId];\n    return item;\n  }\n\n  function fetchArtifactItems() public view returns (ArtifactItem [] memory) {\n    uint itemCount = _artifactIds.current();\n    uint unsoldItemCount = _artifactIds.current() - _artifactsSold.current();\n    uint currentIndex = 0;\n\n    ArtifactItem [] memory artifacts = new ArtifactItem [](unsoldItemCount);\n    for (uint i = 0; i < itemCount; i++) {\n      if (IdForArtifactItem[i + 1].OriginalArtifactOwner == address(0)) {\n        uint currentId = IdForArtifactItem[i + 1].artifactId;\n        ArtifactItem  storage currentItem = IdForArtifactItem[currentId];\n        artifacts[currentIndex] = currentItem;\n        currentIndex += 1;\n      }\n    }\n   \n    return artifacts;\n  }\n\n  function fetchMyArtifacts() public view returns (ArtifactItem [] memory) {\n    uint totalItemCount = _artifactIds.current();\n    uint itemCount = 0;\n    uint currentIndex = 0;\n\n    for (uint i = 0; i < totalItemCount; i++) {\n      if (IdForArtifactItem[i + 1].OriginalArtifactOwner == msg.sender) {\n        itemCount += 1;\n      }\n    }\n\n    ArtifactItem [] memory artifacts = new ArtifactItem [](itemCount);\n    for (uint i = 0; i < totalItemCount; i++) {\n      if (IdForArtifactItem[i + 1].OriginalArtifactOwner == msg.sender) {\n        uint currentId = IdForArtifactItem[i + 1].artifactId;\n        ArtifactItem  storage currentItem = IdForArtifactItem[currentId];\n        artifacts[currentIndex] = currentItem;\n        currentIndex += 1;\n      }\n    }\n   \n    return artifacts;\n  }\n}",
  "sourcePath": "/Users/zouvier/projects/HistorysVault/contracts/HistorysVaultMP.sol",
  "compiler": {
    "name": "solc",
    "version": "0.8.0+commit.c7dfd78e.Emscripten.clang"
  },
  "schemaVersion": "3.4.1",
  "updatedAt": "2021-09-16T04:41:03.645Z",
  "devdoc": {
    "kind": "dev",
    "methods": {},
    "version": 1
  },
  "userdoc": {
    "kind": "user",
    "methods": {},
    "version": 1
  }
}